:020000040800F2
:1000000000000120510A0008A10A0008A10A000806
:10001000A10A0008A10A0008A10A000800000000C7
:10002000000000000000000000000000A10A00081D
:10003000A10A000800000000A10A0008ED0700085E
:1000400000000000A10A0008A10A0008A10A000897
:10005000A10A0008A10A0008ED0300081104000825
:1000600035040008590400087D0400080000000061
:100070000000000000000000000000000000000080
:100080000000000000000000A10A000800000000BD
:10009000000000000000000000000000A10A0008AD
:1000A000A10A0008A10A0008A10A0008A10A000884
:1000B000A10A0008A10A0008A10A0008A10A000874
:1000C000A10A0008A10A0008A10A0008A10A000864
:1000D000A10A000819090008A10A00080000000090
:1000E000A10A0008A10A0008A10A000800000000F7
:1000F0000000000000000000000000000000000000
:1001000000000000A10A0008A10A0008A10A0008D6
:1001100000000000000000000000000000000000DF
:1001200000000000000000000000000000000000CF
:1001300000000000000000000000000000000000BF
:10014000000000000000000000000000A10A0008FC
:10015000000000000000000000000000A10A0008EC
:10016000A10A0008A10A0008000000000000000029
:10017000000000000000000000000000000000007F
:1001800000000000A10A00080000000000000000BC
:04019000A10A0008B8
:1001940010B5054C237833B9044B13B10448AFF3BD
:1001A40000800123237010BD081700200000000008
:1001B400EC0A000808B5034B1BB103490348AFF32D
:1001C400008008BD000000000C170020EC0A0008A5
:1001D40080B483B000AF0346FB71074B1A68FB7908
:1001E400012101FA03F3044913430B6000BF0C37E8
:1001F400BD465DF8047B7047003C014080B483B089
:1002040000AF03460A46FB711346BB71BB79022B50
:100214002ED0022B3FDC002B02D0012B14D03AE06D
:10022400204B9A68FB79012101FA03F31D4913431A
:100234008B601C4BDA68FB79012101FA03F3DB4381
:1002440018491340CB6026E0164BDA68FB7901218C
:1002540001FA03F313491343CB60124B9A68FB79F9
:10026400012101FA03F3DB430E4913408B6012E0D2
:100274000C4B9A68FB79012101FA03F309491343F2
:100284008B60084BDA68FB79012101FA03F3054915
:100294001343CB6000BF00BF0C37BD465DF8047B41
:1002A400704700BF003C014080B483B000AF0346F8
:1002B4000A46FB711346BB71BB79032B1BD83F4B1A
:1002C4009B68BA7902F0030292000F2101FA02F24C
:1002D400D2431146394A0B409360384B9B68F979F5
:1002E400BA7902F00302920001FA02F21146334A8B
:1002F4000B4393605BE0BB79072B1BD82F4BDB6868
:10030400BA7902F0030292000F2101FA02F2D243F9
:1003140011462A4A0B40D360284BDB68F979BA7935
:1003240002F00302920001FA02F21146234A0B433F
:10033400D3603CE0BB790B2B1BD8204B1B69BA79EB
:1003440002F0030292000F2101FA02F2D243114695
:100354001A4A0B401361194B1B69F979BA7902F0F7
:100364000302920001FA02F21146144A0B4313618C
:100374001DE0BB790F2B1AD8104B5B69BA7902F0D8
:10038400030292000F2101FA02F2D24311460B4AF2
:100394000B405361094B5B69F979BA7902F00302A6
:1003A400920001FA02F21146044A0B43536100BF62
:1003B4000C37BD465DF8047B704700BF0038014030
:1003C40080B483B000AF03463960FB71FB79054903
:1003D4003A6841F8232000BF0C37BD465DF8047B22
:1003E400704700BF2417002080B500AF054B5B6940
:1003F400044A43F001035361034B1B68984700BF51
:1004040080BD00BF003C01402417002080B500AF30
:10041400054B5B69044A43F002035361034B5B6879
:10042400984700BF80BD00BF003C01402417002056
:1004340080B500AF054B5B69044A43F00403536184
:10044400034B9B68984700BF80BD00BF003C014040
:100454002417002080B500AF054B5B69044A43F0C4
:1004640008035361034BDB68984700BF80BD00BF9E
:10047400003C01402417002080B500AF054B5B69A8
:10048400044A43F010035361034B1B69984700BFB0
:1004940080BD00BF003C01402417002080B483B01D
:1004A40000AF0346FB710B46BB7113467B71FB79AE
:1004B400052B57D801A252F823F000BFD904000835
:1004C400F1040008090500082105000839050008A1
:1004D40051050008274B1B687979BA79520001FA53
:1004E40002F21146234A0B4313603CE0224B1B6883
:1004F4007979BA79520001FA02F211461E4A0B4385
:10050400136030E01D4B1B687979BA79520001FA07
:1005140002F21146194A0B43136024E0184B1B687E
:100524007979BA79520001FA02F21146144A0B435E
:10053400136018E0134B1B687979BA79520001FAF9
:1005440002F211460F4A0B4313600CE00E4B1B687A
:100554007979BA79520001FA02F211460A4A0B4338
:10056400136000E000BF00BF0C37BD465DF8047B9C
:10057400704700BF0000024000040240000802402F
:10058400000C024000100240001C024080B483B002
:1005940000AF0346FB710B46BB7113467B71BB79FD
:1005A400072B2DD8FB79022B1ED0022B5CDC002BF1
:1005B40002D0012B0CD057E0304B1B6A7979BA7901
:1005C400920001FA02F211462C4A0B4313624EE0E8
:1005D4002B4B1B6A7979BA79920001FA02F211461F
:1005E400274A0B43136242E0264B1B6A7979BA7996
:1005F400920001FA02F21146224A0B43136236E0DA
:10060400FB79022B22D0022B30DC002B02D0012BF1
:100614000ED02BE0194B5B6A7979BA7902F00702A4
:10062400920001FA02F21146144A0B4353621EE08F
:10063400134B5B6A7979BA7902F00702920001FAE6
:1006440002F211460E4A0B43536210E00D4B5B6AF3
:100654007979BA7902F00702920001FA02F211469E
:10066400084A0B43536202E000BF00E000BF00BF32
:100674000C37BD465DF8047B704700BF00000240A4
:10068400000402400008024080B483B000AF034677
:100694000A46FB711346BB71FB79072B62D801A292
:1006A40052F823F0C9060008DD060008F106000828
:1006B40005070008190700082D070008410700086E
:1006C400550700082B4B1A68BB79012101FA03F383
:1006D400284913430B6046E0274B1A68BB79012174
:1006E40001FA03F3244913430B603CE0234B1A68DB
:1006F400BB79012101FA03F3204913430B6032E073
:100704001F4B1A68BB79012101FA03F31C491343F7
:100714000B6028E01B4B1A68BB79012101FA03F333
:10072400184913430B601EE0174B1A68BB7901216B
:1007340001FA03F3144913430B6014E0134B1A68D2
:10074400BB79012101FA03F3104913430B600AE05A
:100754000F4B1A68BB79012101FA03F30C491343C7
:100764000B6000E000BF00BF0C37BD465DF8047BA2
:10077400704700BF303802403438024040380240ED
:100784004438024050380240543802406038024035
:100794006438024080B400AF0B4B1B680A4A43F034
:1007A40001031360094B1B68084A23F0010313601B
:1007B400064B1B68054A23F00203136000BFBD46C5
:1007C4005DF8047B704700BF0038024008380240DF
:1007D40080B400AF034B00221A6000BFBD465DF831
:1007E400047B704710E000E080B500AF024B1B684B
:1007F400984700BF80BD00BF6417002080B400AFDD
:10080400194B40F283629A60174AD3686FF3CF336F
:10081400D360154AD3686FF30C33D360124AD3689C
:100824006FF38A23D360104B1B690F4A23F4805360
:1008340013610D4B1B690C4A23F4005313610A4ADC
:10084400D36843F00803D360074AD36843F0040332
:10085400D360054AD36843F02003D36000BFBD468C
:100864005DF8047B704700BF0010014080B485B080
:1008740000AF78600B46FB700023FB7310E0FB7B3A
:100884007A6813441A780C4B5A6000BF0A4B1B68F1
:10089400DB0903F00103002BF8D0FB7B0133FB736E
:1008A400FA7BFB789A42EAD300BF00BF1437BD46F7
:1008B4005DF8047B704700BF0010014080B485B030
:1008C40000AF78600123FB730A4B1B685B0903F0DC
:1008D4000103012B05D1074B5B68DAB27B681A7000
:1008E40001E00023FB73FB7B18461437BD465DF81B
:1008F400047B70470010014080B400AF044AD36801
:1009040043F40053D36000BFBD465DF8047B7047D9
:100914000010014080B500AF024B1B68984700BF30
:1009240080BD00BF6817002080B483B000AF0346C9
:10093400FB710B4AFB795B09D8B2034652F82320BA
:10094400FB7903F01F03012101FA03F30449134364
:1009540041F8203000BF0C37BD465DF8047B70477A
:1009640000E100E080B500AFFFF714FF0021002094
:10097400FFF78AFE04210320FFF786FE0E210320E1
:10098400FFF782FE0620FFF7CFFF00210020FFF7CC
:1009940035FC00210120FFF787FC11490020FFF7F7
:1009A4000FFD0020FFF714FC022209210020FFF7AD
:1009B40075FD02220A210020FFF770FD072209219C
:1009C4000020FFF7E3FD07220A210020FFF7DEFDE8
:1009D400FFF714FFFFF790FFFFF7FAFEFEE700BFF3
:1009E400E909000880B582B000AF2C211548FFF753
:1009F4003DFF00237B601DE07B682C2202FB03F398
:100A0400104A13442C211846FFF730FF04E00E4B24
:100A14001B681846FFF752FF0B4B1B681B784F2BC4
:100A240005D0094B1B6801331B784B2BEFD17B6836
:100A340001337B607B68852BDEDD00BF00BF083798
:100A4400BD4680BD000000206C1700200D4885467F
:100A5400AFF300800C480D490D4A002302E0D4583E
:100A6400C4500433C4188C42F9D30A4A0A4C0023F4
:100A740001E013600432A242FBD300F011F8FFF747
:100A840071FFFEE70000012000000020081700208D
:100A94000C0B00080817002070170020FEE7000068
:100AA40070B50D4D0D4C641BA4100026A64209D14F
:100AB4000B4D0C4C00F018F8641BA4100026A64241
:100AC40005D170BD55F8043B98470136EEE755F85B
:100AD400043B98470136F2E7040B0008040B0008B6
:100AE400040B0008080B0008F8B500BFF8BC08BCEC
:100AF4009E467047F8B500BFF8BC08BC9E467047D8
:040B0400B90100082B
:040B0800950100084B
:100B0C003A313034303030303030303030303132C7
:100B1C003039393431303030383946343130303086
:100B2C003841333431303030384439003A31303494
:100B3C00303130303042423431303030384246344B
:100B4C003130303038443734313030303830303068
:100B5C0030303030303734003A313034303230309D
:100B6C003030303030303030303030303030303079
:100B7C003030303030303030304546343130303039
:100B8C00383538003A313034303330303046333445
:100B9C00313030303830303030303030304637341F
:100BAC003130303038464234313030303843300018
:100BBC003A31303430343030303935343130303003
:100BCC0038393534313030303839353431303030E3
:100BDC003839353431303030384638003A313034E9
:100BEC0030353030303935343130303038393534C7
:100BFC0031303030383935343130303038393534B3
:100C0C0031303030384538003A31303430363030CD
:100C1C00303935343130303038393534313030309A
:100C2C003839353431303030383935343130303082
:100C3C00384438003A31303430373030303935348C
:100C4C003130303038393534313030303839353462
:100C5C003130303038393534313030303843380079
:100C6C003A3130343038303030393534313030304E
:100C7C003839353431303030383935343130303032
:100C8C003830303030303030303936003A31303462
:100C9C00303930303030303030303030303030303F
:100CAC003030303030303030303030303039353426
:100CBC0031303030383432003A3130343041303029
:100CCC0030393534313030303839353431303030EA
:100CDC0038393534313030303839353431303030D2
:100CEC00383938003A3130343042303030393534DC
:100CFC0031303030383935343130303038393534B2
:100D0C0031303030383935343130303038383800D3
:100D1C003A31303430433030303935343130303092
:100D2C003839353431303030383935343130303081
:100D3C003839353431303030383738003A31303496
:100D4C003044303030393534313030303839353456
:100D5C003130303038393534313030303830303063
:100D6C0030303030303436003A3130343045303079
:100D7C003039353431303030383935343130303039
:100D8C003839353431303030383030303030303034
:100D9C00303336003A313034304630303030303049
:100DAC003030303030303030303030303030303037
:100DBC003030303030393534313030303845320025
:100DCC003A31303431303030303030303030303007
:100DDC0030393534313030303839353431303030D9
:100DEC003839353431303030383135003A313034EF
:100DFC0031313030303030303030303030303030E5
:100E0C0030303030303030303030303030303030D6
:100E1C0030303030303946003A31303431323030C5
:100E2C003039353431303030383935343130303088
:100E3C003839353431303030383935343130303070
:100E4C00383137003A313034313330303039353491
:100E5C00313030303830303030303030303030307D
:100E6C003030303030303030303030303041310094
:100E7C003A31303431343030303030303030303052
:100E8C003030303030303030303030303030303056
:100E9C003039353431303030383931003A31303442
:100EAC003135303030393534313030303839353403
:100EBC0031303030383935343130303038393534F0
:100ECC0031303030384537003A313034313630300B
:100EDC0030393534313030303839353431303030D8
:100EEC0038303030303030303030303030303030EE
:100EFC00303933003A3130343137303030303030F3
:100F0C0030303030303030303030303030303030D5
:100F1C0030303030303030303030303030334600DC
:100F2C003A3130343138303030303030303030309D
:100F3C00303935343130303038303030303030308A
:100F4C003030303030303030303531003A313034B0
:100F5C00313930303039353431303030383030424E
:100F6C0045464545373038423530304630333546C6
:100F7C0038303042453036003A313034314130303F
:100F8C0030464545373145463030343046304342A3
:100F9C004645464633303838304546463330393886
:100FAC00303639003A313034314230303037313428
:100FBC003631323441313034373030424546454594
:100FCC00373030424546454537314546303431009F
:100FDC003A313034314330303030343046304342A3
:100FEC004645464633303838304546463330393836
:100FFC003037313436304334413246003A313034B4
:10100C00314430303031303437303042454645454C
:10101C0037314546303034304630434246454646FB
:10102C0033303838303846003A313034314530308E
:10103C003045464633303938303731343630373432
:10104C0041313034373030424546454537303042F7
:10105C00454134003A313034314630303046454524
:10106C003730304245464545373030424546454598
:10107C00373730343742373431303030384444002D
:10108C003A31303432303030304433343130303027
:10109C0038454234313030303830304235383342D4
:1010AC003030304630444546414145003A313034C9
:1010BC0032313030303338344233393441313336D5
:1010CC0030333934413133363033393439303645B5
:1010DC0030353246383744003A31303432323030E1
:1010EC00303034314234334638303431423938348C
:1010FC003246394438363134363335344239393462
:10110C00323638003A3130343233303030303544C6
:10111C003230413638344236383031463130433053
:10112C004338383638463345373245344233350048
:10113C003A31303432343030303141363833313466
:10114C0042394134323030443046454537324334ED
:10115C004231413638324634423643003A3130342B
:10116C00323530303039413432463944313237340B
:10117C0042324534413133363032453441313336E5
:10118C0030324534414638003A3130343236303022
:10119C0030303045303032343632443442394134D8
:1011AC0032303944323130343635304638303833D9
:1011BC00423136003A313034323730303035313616
:1011CC00383939343246354439303032323433469A
:1011DC0038303432424639453732343442303100BB
:1011EC003A313034323830303031423638313342A3
:1011FC003932333442314236383033423146454548
:10120C003730304630414146414331003A31303479
:10121C00323930303036393436303141383030466E
:10122C003041434641323134433232344245343119
:10123C0041413431304134003A3130343241303074
:10124C003030303235303445303146344235334627
:10125C003832353330393834373031333541433423
:10126C00324638003A31303432423030304638442D
:10127C0043314434433144344245343141413431B7
:10128C00303030323530344530314234423338002E
:10129C003A313034324330303035334638323533EE
:1012AC0030393834373031333541433432463844B1
:1012BC004330303939303139383435003A31303403
:1012CC003244303030303046304543463930353496
:1012DC003631363443313634424534314141343180
:1012EC0030303445303635003A31303432453030D8
:1012FC003030313343313434423533463832343381
:10130C00303938343730303243463844433238344D
:10131C00363436003A3130343246303030303046A4
:10132C0030374346414241424144454341303030DD
:10133C0030303032303130303030303230454300A4
:10134C003A3130343330303030333834333030306D
:10135C003835303433303030383738353633343143
:10136C003233323534373639384537003A31303448
:10137C003331303030313430303030323031433042
:10138C003030303230353034333030303836303431
:10139C0033303030384537003A3130343332303036
:1013AC00303630343330303038363034333030300F
:1013BC0038363034333030303836303433303030F7
:1013CC00384531003A3038343333303030363034FD
:1013DC0033303030383630343330303038324600F9
:1013EC0000000000000000000000000000000000F1
:1013FC003A313034333338303031303438303030B7
:10140C0038303030303030323031343030303032BF
:10141C003031303438303030383631003A313034C5
:10142C0033343830303030303030303130303030A0
:10143C003030303130313430303030323032303096
:10144C0030303032304431003A3038343335383083
:10145C00303030303030303130303030303030317E
:10146C0030334400000000000000000000000000C9
:10147C00000000003A313034333630303030353201
:10148C0038324444384446453830304630303330B6
:10149C004131313138314632363135343838430008
:1014AC003A313034333730303030333638343930F9
:1014BC0030384134303141343330323630373034D7
:1014CC003731323438303336383834003A313034FE
:1014DC0033383030303439303038413430314134B5
:1014EC0033303236303730343731303438303336BD
:1014FC0038343930303938003A31303433393030CF
:10150C003038413430314134333032363037303486
:10151C00373044343830333638343930303841345D
:10152C00303041003A313034334130303031413495
:10153C00333032363037303437304234383033365B
:10154C003834393030384134303141343336390065
:10155C003A31303433423030303032363037303448
:10156C003730383438303336383439303038413419
:10157C003031413433303236303537003A31303453
:10158C0033433030303730343730304246303030FF
:10159C00303032343030303034303234303030302F
:1015AC0038303234304135003A3130343344303015
:1015BC0030303030433032343030303130303234FF
:1015CC0030303031433032343030353238323744C9
:1015DC00384233003A3130343345303030444645AC
:1015EC003830304630303330393046313531423294
:1015FC0031313234383433363838413430444200A7
:10160C003A31303433463030303141343334323681
:10161C00303730343731303438343336383841346D
:10162C003031413433343236303342003A31303495
:10163C00343030303037303437304534383433365A
:10164C003838413430314134333432363037303439
:10165C0037304334383230003A3130343431303072
:10166C003034333638384134303141343334323617
:10167C0030373034373041343834333638384134FD
:10168C00304141003A313034343230303031413431
:10169C0033343236303730343730383438343336FC
:1016AC003838413430314134333432363031320011
:1016BC003A313034343330303037303437303042E4
:1016CC0046303030303032343030303034303234E8
:1016DC003030303038303234303334003A3130340A
:1016EC0034343030303030304330323430303031CC
:1016FC0030303234303030314330323430303532B7
:10170C0038324444383343003A3130343435303095
:10171C003044464538303046303033304131313149
:10172C00383146323631353438383336383439304E
:10173C00303939003A313034343630303038413485
:10174C00303141343338323630373034373132344B
:10175C00383833363834393030384134303334005B
:10176C003A3130343437303030314134333832362A
:10177C003037303437313034383833363834393018
:10178C003038413430314134333933003A3130342C
:10179C0034383030303832363037303437304434F7
:1017AC0038383336383439303038413430314134CC
:1017BC0033383236303031003A313034343930301D
:1017CC0030373034373042343838333638343930B7
:1017DC0030384134303141343338323630373034AC
:1017EC00373145003A3130343441303030303834D0
:1017FC00383833363834393030384134303141347C
:10180C0033383236303730343730304246303900A6
:10181C003A31303434423030303030303030323491
:10182C003030303034303234303030303830323494
:10183C003030303043303234304443003A3130347D
:10184C00344330303030303130303234303030316D
:10185C00433032343030313241303644303035322E
:10186C0038373044384336003A3130343444303031
:10187C0030444645383030463033413433344335C8
:10188C0035354536373035323836394438444645A7
:10189C00383044003A313034344530303030304612
:1018AC0030303330423133314232333242333234DE
:1018BC0038343336393031323230324641304400EC
:1018CC003A313034344630303030314631313934BD
:1018DC0033343136313730343732463438343336AA
:1018EC003930313232303246414433003A313034BF
:1018FC0035303030303031463131393433343136A3
:10190C00313730343732433438343336393031327E
:10191C0032303246414335003A3130343531303093
:10192C00303031463131393433343136313730346B
:10193C00373239343834333639303132323032464A
:10194C00414238003A313034353230303030314663
:10195C00313139343334313631373034373236343F
:10196C00383433363930313232303246414142002C
:10197C003A3130343533303030303146313139341E
:10198C00333431363137303437323334383433360C
:10199C003930313232303246413945003A31303407
:1019AC0035343030303031463131393433343136EE
:1019BC0031373034373141343834333639303132D1
:1019CC0032303246413937003A31303435353030E7
:1019DC0030303146313233454130313031343136AB
:1019EC0031373034373137343834333639303132AB
:1019FC00324433003A3130343536303030303246C0
:101A0C004130314631323345413031303134313669
:101A1C003137303437313334383433363945450087
:101A2C003A31303435373030303031323230324672
:101A3C004130314631323345413031303134313639
:101A4C003137303437313034383641003A31303474
:101A5C00353830303034333639303132323032463A
:101A6C004130314631323345413031303134313609
:101A7C0031373034373036003A3130343539303054
:101A8C0030304334383433363930313232303246F8
:101A9C0041303146313233454130313031343136D9
:101AAC00313539003A31303435413030303730341B
:101ABC0037303934383433363930313232303246CB
:101ACC0041303146313233454130313031333700DA
:101ADC003A313034354230303034313631373034BD
:101AEC0037303030303032343030303034303234D3
:101AFC003030303038303234304430003A313034D9
:101B0C003543303030303030433032343030303197
:101B1C003030323430303031433032343030373290
:101B2C0038353444383932003A3130343544303079
:101B3C003044464538303046303034304531383218
:101B4C003232433336343034413237343844304611
:101B5C00384235003A31303435453030303330335B
:101B6C00383031323230324641303146313139340D
:101B7C00334330463833303138373034373346001E
:101B8C003A313034354630303032323438443046E5
:101B9C0038333433383031323230324641303146DA
:101BAC003131393433433046384638003A313034E9
:101BBC0036303030303334313837303437314434D8
:101BCC0038443046383430333830313232303246A3
:101BDC0041303146314631003A31303436313030D3
:101BEC00303139343343304638343031383730348F
:101BFC003731383438443046383434333830313275
:101C0C00324230003A3130343632303030303246B5
:101C1C004130314631313934334330463834343144
:101C2C003837303437313334384430463835320075
:101C3C003A3130343633303030353033383031326D
:101C4C00323032464130314631313934334330460B
:101C5C003835303138373034374145003A3130344B
:101C6C0036343030303045343844304638353433FF
:101C7C0038303132323032464130314631313934FC
:101C8C0033433046383942003A313034363530300F
:101C9C0030353431383730343730393438443046D5
:101CAC0038363033383031323230324641303146CA
:101CBC00313735003A313034363630303031393412
:101CCC0033433046383630313837303437303434AB
:101CDC0038443046383634333830313232333400CD
:101CEC003A3130343637303030303246413031468C
:101CFC003131393433433046383634313837303477
:101D0C003730303330303234303933003A313034CC
:101D1C003638303030303934424433463830303253
:101D2C00383432463030313032433346383030324A
:101D3C0038443346383030003A313034363930306C
:101D4C00303038323832324630303130324333462C
:101D5C0038303832384433463830383238323246FC
:101D6C00304444003A313034364130303030323047
:101D7C0032433346383038323837303437303033FA
:101D8C0030303234303038423546464637334600F0
:101D9C003A313034364230303045374646303032C6
:101DAC00313038343646464637383946463031328B
:101DBC003230303231303834363935003A31303413
:101DCC00364330303046464637344546453031325E
:101DDC003230303231303834364646463742464659
:101DEC0045303032323431003A31303436443030D0
:101DFC003031313436313034364646463738324657
:101E0C004530313232303032313038343646464655
:101E1C00373246003A31303436453030304633466E
:101E2C004530303232303445303031333342334642
:101E3C00354641364646424444303133323833001D
:101E4C003A313034364630303042324635464136FF
:101E5C0046303144433030323346364537303032F9
:101E6C003231313436313034364645003A31303443
:101E7C0037303030304646463745324645303032C2
:101E8C0032303445303031333342334635464136C7
:101E9C0046464244444230003A31303437313030D7
:101EAC003030313332423246354641364644464470
:101EBC00433030323346364537303234423446467E
:101ECC00303046003A313034373230303030303602
:101EDC003239413630373034373030424630304585
:101EEC004430304530323234423942363837410092
:101EFC003A31303437333030303033463030433091
:101F0C00333034324231344430303832423136445A
:101F1C003031424231314634423135003A3130347D
:101F2C00373430303031463441314136303032453F
:101F3C003031443442314434413141363031413412
:101F4C0042394236384633003A3130343735303046
:101F5C0030433346333033313331423441443135FD
:101F6C0043313834413133363843423430313336EF
:101F7C00304130003A31303437363030303730344D
:101F8C0037313634423138344131413630463045C0
:101F9C0037313334423539363835413638394400E7
:101FAC003A313034373730303030324630334630D7
:101FBC0032313146343830304631334430313334B9
:101FCC004242334642463246333945003A31303488
:101FDC00373830303030443441353236384332467D
:101FEC003338383132303246423033463330413474
:101FFC0041353236384338003A31303437393030A5
:10200C003043324633303134323031333235323082
:10201C003042334642463246333037344131333620
:10202C00303435003A313034374130303044344577
:10203C0037303734424233464246324633303334FB
:10204C004135323638433246333838313231330049
:10205C003A31303437423030303032464230334609
:10206C0033454145373030424630303338303234E6
:10207C003030343030303032304438003A31303453
:10208C003743303030303032344634303030303406
:10209C0038303030383430373837443031303842DB
:1020AC0035464646373938003A31303437443030CB
:1020BC003041354646303234413032344239413683
:1020CC0030303842443030424630303430303030AA
:1020DC00384436003A3130343745303030303045C2
:1020EC00443030453030384235464646374131462B
:1020FC00463038424446454537303030304646004D
:10210C003A31303437463030303031323330333688
:10211C003030313442304236303730343730304260
:10212C004630383030303032304444003A3130347C
:10213C00383030303030303030303030303030308B
:10214C003030303030303130323033303430363073
:10215C0037303830393830003A313034383130306B
:10216C00303738353633343132303032344634301F
:10217C003031383030303032303030303030303048
:10218C00303334003A303434383230303033323546
:10219C0034373639383030000000000000000000C1
:1021AC000000000000000000000000000000000023
:1021BC003A303430303030303530383030343230F2
:1021CC003941340000000000000000000000000055
:1021DC000000000000000000000000003A30303029
:1021EC003030303031464600000000000000000066
:1021FC0000000000000000000000000000000000D3
:08220C000000000000000000CA
:0400000508000A5194
:00000001FF
