:020000040800F2
:10000000000001203D0F00088D0F00088D0F000833
:100010008D0F00088D0F00088D0F000800000000F4
:100020000000000000000000000000008D0F00082C
:100030008D0F0008000000008D0F0008210C000843
:10004000000000008D0F00088D0F00088D0F0008C4
:100050008D0F00088D0F00088D0F00088D0F000810
:100060008D0F00088D0F00088D0F000800000000A4
:100070000000000000000000000000000000000080
:1000800000000000000000008D0F000800000000CC
:100090000000000000000000000000008D0F0008BC
:1000A0008D0F00088D0F00088D0F00088D0F0008C0
:1000B0008D0F00088D0F00088D0F00088D0F0008B0
:1000C0008D0F00088D0F00088D0F00088D0F0008A0
:1000D0008D0F0008AD0D00088D0F00080000000016
:1000E0008D0F00088D0F00088D0F00080000000024
:1000F0000000000000000000000000000000000000
:10010000000000008D0F00088D0F00088D0F000803
:1001100000000000000000000000000000000000DF
:1001200000000000000000000000000000000000CF
:1001300000000000000000000000000000000000BF
:100140000000000000000000000000008D0F00080B
:100150000000000000000000000000008D0F0008FB
:100160008D0F00088D0F0008000000000000000047
:10017000000000000000000000000000000000007F
:10018000000000008D0F00080000000000000000CB
:040190008D0F0008C7
:1001940010B5054C237833B9044B13B10448AFF3BD
:1001A40000800123237010BD08000020000000001F
:1001B400D80F000808B5034B1BB103490348AFF33C
:1001C400008008BD000000000C000020D80F0008CB
:1001D40080B485B000AF0346FB710023FB73FB7949
:1001E4002F2B06D9FB79392B03D8FB79303BFB73D2
:1001F40002E0FB79373BFB73FB7B18461437BD46A3
:100204005DF8047B704780B582B000AF78607B688E
:1002140008331B78DBB2342B09D0342B08DC302BA9
:1002240001D0312B04E0786800F006F800E000BF4C
:1002340000BF0837BD4680BD80B584B000AF78608C
:100244000023FB737B6801331B78DBB21846FFF78E
:10025400BFFF0346BB737B6802331B78DBB21846CF
:10026400FFF7B6FF03467B73BB7B1B015AB297F9BA
:100274000D3013435BB23B737B6803331B78DBB2F3
:100284001846FFF7A5FF0346FB727B6804331B780F
:10029400DBB21846FFF79CFF0346BB727B6805334D
:1002A4001B78DBB21846FFF793FF03467B727B682B
:1002B40006331B78DBB21846FFF78AFF03463B720E
:1002C4003A4B1B681B0C1B04384A1360FB7A1A0355
:1002D400BB7A1B021A437B7A1B011A433B7A1343F2
:1002E4001A46324B1B681343304A13600023FB73D6
:1002F40048E0FB7B9B0009337A6813441B78DBB22C
:100304001846FFF765FF0346FB72FB7B9B000A332D
:100314007A6813441B78DBB21846FFF759FF03468B
:10032400BB72FB7B9B000B337A6813441B78DBB2F4
:100334001846FFF74DFF03467B72FB7B9B000C3393
:100344007A6813441B78DBB21846FFF741FF034673
:100354003B727B7A1B031AB23B7A1B021BB2134318
:100364001AB2FB7A1B011BB213431AB2BB7A1BB23B
:1003740013431AB2FB7B91B20D4A22F81310FB7B94
:100384000133FB733B7B5B08DBB2FA7B9A42B0D34D
:10039400064B18683B7B5B08DBB21A46044900F045
:1003A40073F800BF1037BD4680BD00BF00000020B9
:1003B4002400002080B483B000AF0346FB7100BF6B
:1003C400234BDB681B0C03F00103012BF8D0204BFB
:1003D4001B69DB0F03F00103012B05D11C4B1D4AE4
:1003E4005A601B4B1C4A5A60194B1B69184A23F06C
:1003F40078031361164B1B69FA79D2001146144A2B
:100404000B431361124B1B69114A43F0020313613E
:100414000F4B1B690E4A43F48033136100BF0C4B2E
:10042400DB681B0C03F00103012BF8D0084BDB68DD
:10043400074A43F00103D360054B1B69044A23F0C8
:100444000203136100BF0C37BD465DF8047B70479F
:10045400003C024023016745AB89EFCD80B582B0F3
:1004640000AF0123FB7106E0FB791846FFF7A2FFFA
:10047400FB790133FB71FB79052BF5D900BF00BF74
:100484000837BD4680BD000080B487B000AFF86077
:10049400B9601346FB7100BF2A4BDB681B0C03F0E9
:1004A4000103012BF8D0274B1B69DB0F03F0010379
:1004B400012B05D1234B244A5A60224B234A5A600C
:1004C400204B1B691F4A23F4407313611D4B1B69A6
:1004D4001C4A43F4807313610023FB7526E0194B17
:1004E4001B69184A43F001031361FB7D5B00BA6882
:1004F4001A44FB6812881A80FB680233FB6000BF51
:10050400104BDB681B0C03F00103012BF8D00D4BDF
:10051400DB680C4A43F00103D3600A4B1B69094AA8
:1005240023F001031361FB7D0133FB75FA7DFB7935
:100534009A42D4D300BF00BF1C37BD465DF8047B8C
:10054400704700BF003C024023016745AB89EFCDF3
:1005540080B483B000AF0346FB710B46BB711346F6
:100564007B71FB79052B57D801A252F823F000BF09
:100574008D050008A5050008BD050008D50500087F
:10058400ED05000805060008274B1B687979BA7940
:10059400520001FA02F21146234A0B4313603CE075
:1005A400224B1B687979BA79520001FA02F211469A
:1005B4001E4A0B43136030E01D4B1B687979BA79EE
:1005C400520001FA02F21146194A0B43136024E067
:1005D400184B1B687979BA79520001FA02F2114674
:1005E400144A0B43136018E0134B1B687979BA79EA
:1005F400520001FA02F211460F4A0B4313600CE059
:100604000E4B1B687979BA79520001FA02F211464D
:100614000A4A0B43136000E000BF00BF0C37BD461D
:100624005DF8047B704700BF0000024000040240F4
:1006340000080240000C024000100240001C02406E
:1006440080B483B000AF0346FB710B46BB71134605
:100654007B71FB79052B51D801A252F823F000BF1E
:100664007D06000893060008A9060008BF060008D6
:10067400D5060008EB060008244B5B687979BA7943
:1006840001FA02F21146214A0B43536037E0204B32
:100694005B687979BA7901FA02F211461C4A0B4374
:1006A40053602CE01B4B5B687979BA7901FA02F24A
:1006B4001146184A0B43536021E0174B5B68797964
:1006C400BA7901FA02F21146134A0B43536016E059
:1006D400124B5B687979BA7901FA02F211460F4A32
:1006E4000B4353600BE00E4B5B687979BA7901FADE
:1006F40002F211460A4A0B43536000E000BF00BFF8
:100704000C37BD465DF8047B704700BF0000024013
:100714000004024000080240000C024000100240A5
:10072400001C024080B483B000AF0346FB710B464B
:10073400BB7113467B71FB79052B57D801A252F884
:1007440023F000BF6107000879070008910700083B
:10075400A9070008C1070008D9070008274B9B68B0
:100764007979BA79520001FA02F21146234A0B430D
:1007740093603CE0224B9B687979BA79520001FA84
:1007840002F211461E4A0B43936030E01D4B9B68F6
:100794007979BA79520001FA02F21146194A0B43E7
:1007A400936024E0184B9B687979BA79520001FA76
:1007B40002F21146144A0B43936018E0134B9B68F2
:1007C4007979BA79520001FA02F211460F4A0B43C1
:1007D40093600CE00E4B9B687979BA79520001FA68
:1007E40002F211460A4A0B43936000E000BF00BFC7
:1007F4000C37BD465DF8047B704700BF0000024023
:100804000004024000080240000C024000100240B4
:10081400001C024080B483B000AF0346FB710B465A
:10082400BB7113467B717B79012B4FD1FB79052B6F
:1008340000F2A08001A252F823F000BF590800087A
:100844006D0800088108000895080008A908000838
:10085400BD0800084C4B5A69BB79012101FA03F326
:10086400494913434B6188E0484B5A69BB790121DC
:1008740001FA03F3454913434B617EE0444B5A6943
:10088400BB79012101FA03F3414913434B6174E03D
:10089400404B5A69BB79012101FA03F33D491343E3
:1008A4004B616AE03C4B5A69BB79012101FA03F3BD
:1008B400394913434B6160E0384B5A69BB790121D4
:1008C40001FA03F3354913434B6156E0FB79052BD9
:1008D40052D801A252F823F0F50800080B090008C9
:1008E40021090008370900084D09000863090008B8
:1008F400254B5A69BB79012101FA03F3DB432249F1
:1009040013404B6139E0214B5A69BB79012101FA4B
:1009140003F3DB431D4913404B612EE01C4B5A6922
:10092400BB79012101FA03F3DB43194913404B61FD
:1009340023E0184B5A69BB79012101FA03F3DB4325
:10094400144913404B6118E0134B5A69BB790121D8
:1009540001FA03F3DB43104913404B610DE00F4BE5
:100964005A69BB79012101FA03F3DB430B491340B4
:100974004B6102E000BF00E000BF00BF0C37BD4682
:100984005DF8047B704700BF000002400004024091
:1009940000080240000C024000100240001C02400B
:1009A40080B483B000AF0346FB710B46BB711346A2
:1009B4007B71BB79072B2DD8FB79022B1ED0022B20
:1009C4005CDC002B02D0012B0CD057E0304B1B6AAF
:1009D4007979BA79920001FA02F211462C4A0B4352
:1009E40013624EE02B4B1B6A7979BA79920001FAB3
:1009F40002F21146274A0B43136242E0264B1B6A5C
:100A04007979BA79920001FA02F21146224A0B432B
:100A1400136236E0FB79022B22D0022B30DC002B50
:100A240002D0012B0ED02BE0194B5B6A7979BA798D
:100A340002F00702920001FA02F21146144A0B4333
:100A440053621EE0134B5B6A7979BA7902F00702AC
:100A5400920001FA02F211460E4A0B43536210E06F
:100A64000D4B5B6A7979BA7902F00702920001FAB8
:100A740002F21146084A0B43536202E000BF00E051
:100A840000BF00BF0C37BD465DF8047B704700BF54
:100A940000000240000402400008024080B483B019
:100AA40000AF03460A46FB711346BB71FB79072B63
:100AB40062D801A252F823F0DD0A0008F10A000806
:100AC400050B0008190B00082D0B0008410B00084A
:100AD400550B0008690B00082B4B1A68BB790121E0
:100AE40001FA03F3284913430B6046E0274B1A68C5
:100AF400BB79012101FA03F3244913430B603CE061
:100B0400234B1A68BB79012101FA03F320491343EB
:100B14000B6032E01F4B1A68BB79012101FA03F321
:100B24001C4913430B6028E01B4B1A68BB79012155
:100B340001FA03F3184913430B601EE0174B1A68BC
:100B4400BB79012101FA03F3144913430B6014E048
:100B5400134B1A68BB79012101FA03F310491343BB
:100B64000B600AE00F4B1A68BB79012101FA03F309
:100B74000C4913430B6000E000BF00BF0C37BD46B7
:100B84005DF8047B704700BF3038024034380240BF
:100B94004038024044380240503802405438024041
:100BA400603802406438024080B400AF0B4B1B68CD
:100BB4000A4A43F001031360094B1B68084A23F0F7
:100BC40001031360064B1B68054A23F002031360FC
:100BD40000BFBD465DF8047B704700BF003802408B
:100BE4000838024080B400AF034B00221A6000BFF3
:100BF400BD465DF8047B704710E000E080B400AFB0
:100C0400054B1B681B0CDBB203F00103DBB2184677
:100C1400BD465DF8047B704710E000E080B582B00B
:100C240000AF0023FB71054B1B689847FFF7E6FFF5
:100C34000346FB7100BF0837BD4680BDEC000020B1
:100C440080B483B000AF786039600F4B00221A6023
:100C54000D4A7B685B0053600B4B00229A600A4B81
:100C64001B68094A43F001031360084A3B68136098
:100C7400054B1B68044A43F00203136000BF0C37A2
:100C8400BD465DF8047B704710E000E0EC000020F6
:100C940080B400AF194B40F283629A60174AD3685C
:100CA4006FF3CF33D360154AD3686FF30C33D3603B
:100CB400124AD3686FF38A23D360104B1B690F4A1F
:100CC40023F4805313610D4B1B690C4A23F4005326
:100CD40013610A4AD36843F00803D360074AD36810
:100CE40043F00403D360054AD36843F02003D36080
:100CF40000BFBD465DF8047B704700BF0010014093
:100D040080B485B000AF78600B46FB700023FB73A2
:100D140010E0FB7B7A6813441A780C4B5A6000BFCE
:100D24000A4B1B68DB0903F00103002BF8D0FB7BA3
:100D34000133FB73FA7BFB789A42EAD300BF00BF0E
:100D44001437BD465DF8047B704700BF00100140B6
:100D540080B485B000AF78600123FB730A4B1B6835
:100D64005B0903F00103012B05D1074B5B68DAB281
:100D74007B681A7001E00023FB73FB7B1846143771
:100D8400BD465DF8047B70470010014080B400AF9D
:100D9400044AD36843F40053D36000BFBD465DF8F2
:100DA400047B70470010014080B500AF024B1B6804
:100DB400984700BF80BD00BFF000002080B500AFA1
:100DC400094B01221A70094B094A1A60094B1B6826
:100DD400094A1360084B1B68984701220021002030
:100DE400FFF718FD00BF80BDF400002008ED00E00F
:100DF40000400008044000086001002080B582B073
:100E040000AF0023FB71FFF7CFFE00210020FFF7A6
:100E140045FE04210320FFF741FE0F210420FFF7C4
:100E24003DFE012200210020FFF792FB0122002158
:100E34000020FFF777FC002200210020FFF700FCD0
:100E4400012200210020FFF7E5FC022209210020F5
:100E5400FFF77EFB02220A210020FFF779FB07221D
:100E640009210020FFF79CFD07220A210020FFF73B
:100E740097FDFFF70DFFFFF789FF28492848FFF783
:100E8400DFFE40E0274B1B78DBB21A46264B1344A7
:100E94001846FFF75DFF0346FB71FB79012B32D146
:100EA400FFF7A0FE1F4B1B78DBB21A461E4B9B5C60
:100EB400DBB2002B14D11D4B1B78DBB2012B04D108
:100EC400FFF7CCFA194B00221A701748FFF79BF969
:100ED40002211748FFF714FF124B00221A7006E094
:100EE400104B1B78DBB20133DAB20E4B1A700E4B87
:100EF4001B7ADBB2312B06D1002200210020FFF740
:100F040089FCFFF75BFF0B4B1B78DBB2002BB9D0DE
:100F140000BF00BF0837BD4680BD00BFC10D00083B
:100F240000A3E1115C010020F8000020040000206F
:100F3400F00F0008F40000200D488546AFF3008050
:100F44000C480D490D4A002302E0D458C450043320
:100F5400C4188C42F9D30A4A0A4C002301E01360F6
:100F64000432A242FBD300F011F8FFF747FFFEE77B
:100F7400000001200000002008000020FC0F0008F1
:100F84000800002064010020FEE7000070B50D4D4C
:100F94000D4C641BA4100026A64209D10B4D0C4C29
:100FA40000F018F8641BA4100026A64205D170BDF9
:100FB40055F8043B98470136EEE755F8043B98474B
:100FC4000136F2E7F40F0008F40F0008F40F0008EC
:100FD400F80F0008F8B500BFF8BC08BC9E4670477F
:0C0FE400F8B500BFF8BC08BC9E46704782
:040FF0004F4B000063
:040FF400B901000837
:040FF8009501000857
:080FFC000040000801000000A4
:0400000508000F3DA3
:00000001FF
